:100F660044415441464C4153485F415252415920F5
:0C0F7600544553540D0A002C000D0A00D5
:100F45004101490041014B0041014A0041014C006A
:100F550044014D000000004101140042011500004C
:080003003099FDC2998F99228A
:0B0EBD0090001CEBF0A3EAF0A3E9F0AA
:100EC800E4FFFE90001CE0FBA3E0FAA3E0F98F82A8
:100ED8008E831202A3601B90001CE0A3E0A3E00F26
:100EE800EFAC0670010E14F5828C831202A3F599FB
:020EF80080D1A7
:010EFA0022D5
:040A8C00AB07AA0604
:100A9000900193E4F0A3740FF0900193E0FEA3E0C3
:100AA0002483F58274013EF583E4F0EBAE02781FF7
:100AB000CEC313CE13D8F9FF900195EEF0A3EFF05B
:100AC0004E600DEBF4FFEAF4FEEF2401FBE43EFA86
:100AD000900194E024FFF0900193E034FFF07C005B
:100AE0007D0AAF03AE021202F2ED2430FFE0FCA358
:100AF000E02483F58274013CF583EFF07C007D0AED
:100B0000AF03AE021202F2AA06AB07EB4A70C19025
:100B10000195E07002A3E0601E900194E024FFF0D4
:100B2000900193E034FFF0E0FEA3E02483F58274AB
:100B3000013EF583742DF0900193E0FEA3E0248341
:0A0B4000F974013EFA7B01120EBDAC
:010B4A002288
:0808D900900002EEF0A3EFF025
:1008E1009000141204C00000000F900014E0A3E077
:1008F100A3E0A3E02404F582E43400F583E4F0905E
:100901000014E0FCA3E0FDA3E0FEA3E024FFFFEE62
:1009110034FFFEED34FFFDEC34FFFC9000141204B3
:10092100B47E00900003E0540FFFE4FCFD9000183A
:100931001204B4E47F0AFEFDFC900018E0F8A3E085
:10094100F9A3E0FAA3E0FBC312049050249000182D
:10095100E0A3E0A3E0A3E02430FB900014E0A3E0D7
:10096100A3E0A3E02404F582E43400F583EBF080F6
:1009710022900018E0A3E0A3E0A3E02457FB90003D
:1009810014E0A3E0A3E0A3E02404F582E43400F53D
:1009910083EBF0900002E0C4F854F0C868FEA3E0D5
:1009A100C4540F48FF900002EEF0A3EFF04E600335
:1009B100020900900014E0A3E0A3E0A3E02404F9FD
:0909C100E43400FA7B01120EBDC2
:0109CA00220A
:1007A800E4900000F0A3F090014DE0FCA3E0FDA36D
:1007B800E0FEA3E05402FFE4FEFDFCEF60047F01CD
:1007C80080027F00EF70030208D890014DE0FCA37F
:1007D800E0FDA3E0FEA3E054FDFFEEEDEC90014D3B
:1007E8001204B47BFF7A0F7966120EBDE490000004
:1007F800F0900000E0FFC39432501F900114E0C451
:1008080054F0FEEF2EFE74172FF582E43401F583C1
:10081800EEF0900000E004F080D77B017A017917B0
:10082800900007E4F0A37432F07F807E3F1209CB7A
:100838007B017A017951900007E4F0A37432F07FCC
:10084800807E3F120D2BE4900000F0900000E0FF46
:10085800C39432503474512FF582E43401F583E0A7
:10086800FF7E001208D97BFF7A0F797D120EBD90AA
:100878000000E004540770097BFF7A0F797F120E9D
:10088800BD900000E004F080C27BFF7A0F797F12F0
:100898000EBD7BFF7A0F7966120EBD900114E0FD44
:1008A8007F007E3F1206747F007E3F120F9C9000EF
:1008B80001EFF07E001208D97BFF7A0F797F120EC4
:1008C800BD900114E004F07BFF7A0F797F120EBD12
:0108D80022FD
:0100200022BD
:060FA400A292B39292221A
:100F8200A2AF9200C2AF75C7AA75C755E4F591A288
:0A0F92000092AF53B3FB43B40422F6
:06051E009001971204B4E5
:10052400E4F59190019BE0FEA3E08EF01204F10546
:10053400570001055C000405640010056C002005EB
:10054400740040057C008005840100058C020000D5
:1005540000059253C98F803653C98F43C910802E2A
:1005640053C98F43C920802653C98F43C930801E85
:1005740053C98F43C940801653C98F43C950800E55
:1005840053C98F43C960800653C98F43C970C2C819
:1005940043C98043C9047B407A42790F78009001B3
:1005A40097E0FCA3E0FDA3E0FEA3E0FF1203FE90AE
:1005B400019FE0F8A3E0F9A3E0FAA3E0FB120373C0
:1005C400C006C00790019BE0FEA3E0FFFBAA06E47F
:1005D400F9F8D007D0061203FEC3E49FFFE49EFEA1
:1005E40074019DFDE49CFCEFE49001A3EFF07B40DB
:1005F4007A42790F7800900197E0FCA3E0FDA3E034
:10060400FEA3E0FF1203FE90019FE0F8A3E0F9A32C
:10061400E0FAA3E0FB120373C006C00790019BE05D
:10062400FEA3E0FFFBAA06E4F9F8D007D006120304
:10063400FEC3E49FFFE49EFE74019DFDE49CFC78F0
:10064400081204A190019DE07002A3E060219001D2
:10065400A3E0F5CC8FCDD2CA30CFFDC2CFC2CA90B1
:0F066400019EE024FFF090019DE034FFF080D56F
:010673002264
:100E7D00900115E475F00112035DAFF0FEE4FCFD89
:100E8D007BE87A03F9F8D31204905023E49001150E
:100E9D00F0A3F0120FA490014DE0FCA3E0FDA3E040
:0F0EAD00FEA3E04402FFEEEDEC90014D1204B401
:010EBC002213
:03000B00020DEEF5
:100DEE00C0E0C0F0C083C082C0D075D000C000C0CB
:100DFE0001C002C003C004C005C006C0079001496F
:100E0E00E0F58C90014BE0F58AC28D120E7DD00775
:100E1E00D006D005D004D003D002D001D000D0D05F
:090E2E00D082D083D0F0D0E03274
:100EFB00E4900000F0A3F05389F04389019001497D
:100F0B0074F8F090014B7430F0758CF8F58AD2A917
:040F1B00D2AFD28CF3
:010F1F0022AF
:100E3700AB07EBD3947F503D90014DE0FCA3E0FD61
:100E4700A3E0FEA3E05401FFE4FEFDFCEF60047F96
:100E57000180027F00EF601D90014DE0FCA3E0FDE3
:100E6700A3E0FEA3E054FEFFEEEDEC90014D12046B
:060E7700B4AF038000226D
:03002300020D9338
:100D9300C0E0C0F0C083C082C0D075D000C000C026
:100DA30003C004C005C006C00730982090014DE081
:100DB300FCA3E0FDA3E0FEA3E04401FFEEEDEC9015
:100DC300014D1204B4AF99120E37C2983099052021
:100DD3000102C299D007D006D005D004D003D000B9
:0B0DE300D0D0D082D083D0F0D0E0321E
:100B4B009000001204C00001C200A2AF9200C2AF1D
:100B5B0075C7AA75C755E4F591A20092AF53B1BF03
:100B6B0053B2BF75985043878053C4F8A2AF92001D
:100B7B00C2AF75C7AA75C755F591A20092AF43C412
:100B8B0020900000E0F8A3E0F9A3E0FAA3E0FB7FDC
:100B9B00607EE37D167C001203FEC3E49FFFE49EA0
:100BAB00FE74019DFDE49CFC78081204A18FC69095
:100BBB000000E0F8A3E0F9A3E0FAA3E0FB7F607E7E
:100BCB00E37D167C001203FEC3E49FFFE49EFE74DC
:100BDB00019DFDE49CFCEFE48FC5A2AF9200C2AF78
:100BEB0075C7AA75C755F591A20092AF43C408D239
:070BFB00ACD2AFD299D20188
:010C020022CF
:100C9D00E58720E403020D2AA2AF9200C2AF75C70B
:100CAD00AA75C755439F01A20092AF75A638E4F50A
:100CBD00A775AF04A2AF9200C2AF75C7AA75C7558D
:100CCD0043A401A20092AF85AE0875A639F5A7A27F
:100CDD00AF9200C2AF75C7AA75C75543A401A20054
:100CED0092AF85AE09A2AF9200C2AF75C7AA75C704
:100CFD0055539FFEA20092AF75C7AA75C7558508BB
:100D0D008475C7AA75C755850985A2AF9200C2AF74
:0D0D1D0075C7AA75C755539FFEA20092AF7F
:010D2A0022A6
:100F2000120C9DA2AF9200C2AF75C7AA75C755E457
:100F3000F591A20092AFF5B1F5B2F5B3F5B4F5AC09
:050F4000F5ADD2AF2267
:10000E00120F20120B4B120F82120EFB1207A8803A
:02001E00FB22C3
:040F9C008F828E832F
:030FA000E493FFD8
:010FA300222B
:08067400900002EEF0A3EFF08C
:10067C00E4FC900002E0FEA3E07807CEC313CE1397
:10068C00D8F97807C333CE33CED8F9FF900004EEF7
:10069C00F0A3EFF0E4FCECFF900005E02FFF9000DE
:1006AC0004E03400FE120F9C7E0074942CF582E45E
:1006BC003400F583EFF00CECB480DB7C009000038D
:1006CC00E0547F2494F582EC3400F583EDF0900037
:1006DC0004E0FEA3E0F5A6EEF5A775AEFFA2AF927F
:1006EC0000C2AF75C7AA75C755439F01A20092AF50
:1006FC00A2AF9200C2AF75C7AA75C75543A501A298
:10070C000092AF75AF22A2AF9200C2AF75C7AA75A7
:10071C00C75543A401A20092AFA2AF9200C2AF751D
:10072C00C7AA75C755439F01A20092AFA2AF920012
:10073C00C2AF75C7AA75C75543A501A20092AF7584
:10074C00AF21E4900004E0FEA3E02CF5A6EEF5A7A3
:10075C0074942CF582E43400F583E0F5AEA2AF92EC
:10076C0000C2AF75C7AA75C75543A401A20092AFCA
:10077C000CECB480CEA2AF9200C2AF75C7AA75C7FD
:10078C005553A5FEA20092AFA2AF9200C2AF75C79F
:0B079C00AA75C755539FFEA20092AF44
:0107A700222F
:1009CB00900002EEF0A3EFF0A3EBF0A3EAF0A3E9A3
:0109DB00F02B
:1009DC00900002E0FCA3E0FDAE047807CEC313CE7A
:1009EC0013D8F9FB900007E0FEA3E02DFFEC3EFED0
:1009FC00EF7807CEC313CE13D8F9900009F090000E
:100A0C0009E06B6056900002E0FEA3E0FFA3E0FB60
:100A1C00A3E0FAA3E0F990000F7480F0120026AD69
:100A2C0007ED900003E02FF0900002E03400F0EDB1
:100A3C00900005E48FF0120347EDC3900008E09F8F
:100A4C00F0900007E09400F0900002E0FEA3E07844
:100A5C0007CEC313CE13D8F9FB80A3900007E0FC9C
:100A6C00A3E0FD4C6019900002E0FEA3E0FFA3E0C0
:0F0A7C00FBA3E0FAA3E0F990000FEDF0120026C3
:010A8B002248
:100D2B00900002EEF0A3EFF0A3EBF0A3EAF0A3E93F
:010D3B00F0C7
:100D3C00E4900009F0A3F0900007E0FEA3E0FFA30D
:100D4C00E0FCA3E0FDC39FEC9E503B900003E02D24
:100D5C00FF900002E03C8F82F583E493FF90000447
:100D6C00E0FBA3E0FAA3E0F9900009E0A3E0F58230
:100D7C008C83EF1202D090000AE004F07006900011
:060D8C0009E004F080B153
:010D9200223E
:1000260090000AEEF0A3EFF0A3EBF0A3EAF0A3E949
:01003600F0D9
:10003700A2AF9200C2AF75C7AA75C755439F01A269
:100047000092AFA2AF9200C2AF75C7AA75C755435A
:10005700A501A20092AF90000AE0FEA3E0FF547F43
:10006700FD900011F0C374809DFD900010F090008A
:100077000FE0D39D4006A3E090000FF0900012EE32
:10008700F0A3EFF0E4900010F090000FE0FFA3E082
:10009700FEC39F501B900012E0FCA3E02EF582E404
:1000A7003CF583E493B4FF08900010E004F080D996
:1000B700EE6F600302016275AF2190000AE0FEA3B4
:1000C700E0F5A6EEF5A7E4900010F090000FE0FF32
:1000D700A3E0FEC39F503290000CE0FBA3E0FAA31D
:1000E700E0F98E827583001202A3F5AEA2AF9200EB
:1000F700C2AF75C7AA75C75543A401A20092AF0541
:10010700A6900010E004F080C2E4900010F0900088
:100117000FE0FFA3E0FEC39F502F90000CE0FBA36E
:10012700E0FAA3E0F98E827583001202A3FF900024
:1001370012E0FCA3E02EF582E43CF583E493B507D7
:1001470008900010E004F080C590000FE0FFA3E0E6
:100157006F700302028A800302028A90000AE0FF9E
:10016700A3E05480900012CFF0A3EFF0E4900010CA
:10017700F0900010E0FF900012E0FCA3E02FF58262
:10018700E43CF583E493FE74142FF582E43400F520
:1001970083EEF0900010E004F0E0B480D4E4900027
:1001A70010F090000FE0FFA3E0C39F503190000CC8
:1001B700E0FBA3E0FAA3E0F9900010E0FFF58275F9
:1001C70083001202A3FE900011E02F2414F582E4AD
:1001D7003400F583EEF0900010E004F080C4900046
:1001E7000AE0FEA3E05480F5A6EEF5A775AF2275E9
:1001F700AEFFA2AF9200C2AF75C7AA75C75543A499
:1002070001A20092AF75AF21E4900010F0900010AA
:10021700E0FFC39480502A74142FF582E43400F56C
:1002270083E0F5AEA2AF9200C2AF75C7AA75C755F6
:1002370043A401A20092AF05A6900010E004F0804D
:10024700CCE4900010F0900010E0FFC39480502B96
:10025700E0FE900012E0FCA3E02EF582E43CF5837B
:10026700E493FD74142EF582E43400F583E0FEED8B
:10027700B50608900010E004F080CBEF64806003BF
:100287000201E5A2AF9200C2AF75C7AA75C7555361
:0B0297009FFEA20092AF90000FE0FF5E
:0102A2002239
:03000000020C03EC
:100C0300787FE4F6D8FD9000007FFF7E03E4F0A335
:0A0C1300DFFCDEFA758120020C58A8
:100C1D0002000EE493A3F8E493A34003F68001F2DF
:100C2D0008DFF48029E493A3F85407240CC8C333D8
:100C3D00C4540F4420C8834004F456800146F6DFA7
:100C4D00E4800B0102040810204080900F45E47EE3
:100C5D00019360BCA3FF543F30E509541FFEE4939C
:100C6D00A360010ECF54C025E060A840B8E493A363
:100C7D00FAE493A3F8E493A3C8C582C8CAC583CA8E
:100C8D00F0A3C8C582C8CAC583CADFE9DEE780BE46
:010F6500008B
:1002A300BB010CE58229F582E5833AF583E0225010
:1002B30006E92582F8E622BBFE06E92582F8E2225A
:0D02C300E58229F582E5833AF583E4932274
:1002D000F8BB010DE58229F582E5833AF583E8F064
:1002E000225006E92582C8F622BBFE05E92582C810
:0202F000F222F8
:1002F200BC000BBE0029EF8DF084FFADF022E4CCF0
:10030200F875F008EF2FFFEE33FEEC33FCEE9DECB8
:10031200984005FCEE9DFE0FD5F0E9E4CEFD22EDFE
:10032200F8F5F0EE8420D21CFEADF075F008EF2F48
:10033200FFED33FD4007985006D5F0F222C398FD39
:050342000FD5F0EA22D6
:10034700C5F0F8A3E028F0C5F0F8E5821582700241
:060357001583E038F022DE
:10035D00A3F8E0C5F025F0F0E58215827002158353
:06036D00E0C838F0E822B0
:10037300E88FF0A4CC8BF0A42CFCE98EF0A42CFC29
:100383008AF0EDA42CFCEA8EF0A4CDA8F08BF0A4A7
:100393002DCC3825F0FDE98FF0A42CCD35F0FCEB06
:1003A3008EF0A4FEA9F0EB8FF0A4CFC5F02ECD39CB
:0F03B300FEE43CFCEAA42DCE35F0FDE43CFC2238
:1003C20075F008758200EF2FFFEE33FECD33CDCCF2
:1003D20033CCC58233C5829BED9AEC99E582984075
:1003E2000CF582EE9BFEED9AFDEC99FC0FD5F0D652
:1003F200E4CEFBE4CDFAE4CCF9A88222B800C1B97C
:100402000059BA002DEC8BF084CFCECDFCE5F0CBB9
:10041200F97818EF2FFFEE33FEED33FDEC33FCEBF2
:1004220033FB10D703994004EB99FB0FD8E5E4F9AD
:10043200FA227818EF2FFFEE33FEED33FDEC33FC9A
:10044200C933C910D7059BE99A4007EC9BFCE99A8E
:10045200F90FD8E0E4C9FAE4CCFB2275F010EF2FD3
:10046200FFEE33FEED33FDCC33CCC833C810D707D3
:100472009BEC9AE899400AED9BFDEC9AFCE899F80E
:0E0482000FD5F0DAE4CDFBE4CCFAE4C8F922A1
:10049000EB9FF5F0EA9E42F0E99D42F0E89C45F0C2
:0104A0002239
:1004A100E8600FECC313FCED13FDEE13FEEF13FF39
:0304B100D8F1225D
:0C04B400ECF0A3EDF0A3EEF0A3EFF022BB
:1004C000A8828583F0D083D0821204D71204D71279
:1004D00004D71204D7E473E493A3C583C5F0C5839E
:1004E000C8C582C8F0A3C583C5F0C583C8C582C886
:0104F00022E9
:1004F100D083D082F8E4937012740193700DA3A39A
:1005010093F8740193F5828883E473740293B5F0D0
:0D051100067403936860E9A3A3A3A380D838
:00000001FF
